{"abi":[{"type":"constructor","inputs":[{"name":"initialOwner","type":"address","internalType":"address"}],"stateMutability":"nonpayable"},{"type":"function","name":"approve","inputs":[{"name":"to","type":"address","internalType":"address"},{"name":"tokenId","type":"uint256","internalType":"uint256"}],"outputs":[],"stateMutability":"nonpayable"},{"type":"function","name":"balanceOf","inputs":[{"name":"owner","type":"address","internalType":"address"}],"outputs":[{"name":"","type":"uint256","internalType":"uint256"}],"stateMutability":"view"},{"type":"function","name":"getApproved","inputs":[{"name":"tokenId","type":"uint256","internalType":"uint256"}],"outputs":[{"name":"","type":"address","internalType":"address"}],"stateMutability":"view"},{"type":"function","name":"getMyOwnerTokens","inputs":[{"name":"_owner","type":"address","internalType":"address"}],"outputs":[{"name":"","type":"uint256[]","internalType":"uint256[]"}],"stateMutability":"view"},{"type":"function","name":"isApprovedForAll","inputs":[{"name":"owner","type":"address","internalType":"address"},{"name":"operator","type":"address","internalType":"address"}],"outputs":[{"name":"","type":"bool","internalType":"bool"}],"stateMutability":"view"},{"type":"function","name":"name","inputs":[],"outputs":[{"name":"","type":"string","internalType":"string"}],"stateMutability":"view"},{"type":"function","name":"owner","inputs":[],"outputs":[{"name":"","type":"address","internalType":"address"}],"stateMutability":"view"},{"type":"function","name":"ownerOf","inputs":[{"name":"tokenId","type":"uint256","internalType":"uint256"}],"outputs":[{"name":"","type":"address","internalType":"address"}],"stateMutability":"view"},{"type":"function","name":"renounceOwnership","inputs":[],"outputs":[],"stateMutability":"nonpayable"},{"type":"function","name":"safeMint","inputs":[{"name":"to","type":"address","internalType":"address"},{"name":"uri","type":"string","internalType":"string"}],"outputs":[{"name":"","type":"uint256","internalType":"uint256"}],"stateMutability":"nonpayable"},{"type":"function","name":"safeTransferFrom","inputs":[{"name":"from","type":"address","internalType":"address"},{"name":"to","type":"address","internalType":"address"},{"name":"tokenId","type":"uint256","internalType":"uint256"}],"outputs":[],"stateMutability":"nonpayable"},{"type":"function","name":"safeTransferFrom","inputs":[{"name":"from","type":"address","internalType":"address"},{"name":"to","type":"address","internalType":"address"},{"name":"tokenId","type":"uint256","internalType":"uint256"},{"name":"data","type":"bytes","internalType":"bytes"}],"outputs":[],"stateMutability":"nonpayable"},{"type":"function","name":"setApprovalForAll","inputs":[{"name":"operator","type":"address","internalType":"address"},{"name":"approved","type":"bool","internalType":"bool"}],"outputs":[],"stateMutability":"nonpayable"},{"type":"function","name":"supportsInterface","inputs":[{"name":"interfaceId","type":"bytes4","internalType":"bytes4"}],"outputs":[{"name":"","type":"bool","internalType":"bool"}],"stateMutability":"view"},{"type":"function","name":"symbol","inputs":[],"outputs":[{"name":"","type":"string","internalType":"string"}],"stateMutability":"view"},{"type":"function","name":"tokenURI","inputs":[{"name":"tokenId","type":"uint256","internalType":"uint256"}],"outputs":[{"name":"","type":"string","internalType":"string"}],"stateMutability":"view"},{"type":"function","name":"transferFrom","inputs":[{"name":"from","type":"address","internalType":"address"},{"name":"to","type":"address","internalType":"address"},{"name":"tokenId","type":"uint256","internalType":"uint256"}],"outputs":[],"stateMutability":"nonpayable"},{"type":"function","name":"transferOwnership","inputs":[{"name":"newOwner","type":"address","internalType":"address"}],"outputs":[],"stateMutability":"nonpayable"},{"type":"event","name":"Approval","inputs":[{"name":"owner","type":"address","indexed":true,"internalType":"address"},{"name":"approved","type":"address","indexed":true,"internalType":"address"},{"name":"tokenId","type":"uint256","indexed":true,"internalType":"uint256"}],"anonymous":false},{"type":"event","name":"ApprovalForAll","inputs":[{"name":"owner","type":"address","indexed":true,"internalType":"address"},{"name":"operator","type":"address","indexed":true,"internalType":"address"},{"name":"approved","type":"bool","indexed":false,"internalType":"bool"}],"anonymous":false},{"type":"event","name":"BatchMetadataUpdate","inputs":[{"name":"_fromTokenId","type":"uint256","indexed":false,"internalType":"uint256"},{"name":"_toTokenId","type":"uint256","indexed":false,"internalType":"uint256"}],"anonymous":false},{"type":"event","name":"MetadataUpdate","inputs":[{"name":"_tokenId","type":"uint256","indexed":false,"internalType":"uint256"}],"anonymous":false},{"type":"event","name":"OwnershipTransferred","inputs":[{"name":"previousOwner","type":"address","indexed":true,"internalType":"address"},{"name":"newOwner","type":"address","indexed":true,"internalType":"address"}],"anonymous":false},{"type":"event","name":"Transfer","inputs":[{"name":"from","type":"address","indexed":true,"internalType":"address"},{"name":"to","type":"address","indexed":true,"internalType":"address"},{"name":"tokenId","type":"uint256","indexed":true,"internalType":"uint256"}],"anonymous":false},{"type":"error","name":"ERC721IncorrectOwner","inputs":[{"name":"sender","type":"address","internalType":"address"},{"name":"tokenId","type":"uint256","internalType":"uint256"},{"name":"owner","type":"address","internalType":"address"}]},{"type":"error","name":"ERC721InsufficientApproval","inputs":[{"name":"operator","type":"address","internalType":"address"},{"name":"tokenId","type":"uint256","internalType":"uint256"}]},{"type":"error","name":"ERC721InvalidApprover","inputs":[{"name":"approver","type":"address","internalType":"address"}]},{"type":"error","name":"ERC721InvalidOperator","inputs":[{"name":"operator","type":"address","internalType":"address"}]},{"type":"error","name":"ERC721InvalidOwner","inputs":[{"name":"owner","type":"address","internalType":"address"}]},{"type":"error","name":"ERC721InvalidReceiver","inputs":[{"name":"receiver","type":"address","internalType":"address"}]},{"type":"error","name":"ERC721InvalidSender","inputs":[{"name":"sender","type":"address","internalType":"address"}]},{"type":"error","name":"ERC721NonexistentToken","inputs":[{"name":"tokenId","type":"uint256","internalType":"uint256"}]},{"type":"error","name":"OwnableInvalidOwner","inputs":[{"name":"owner","type":"address","internalType":"address"}]},{"type":"error","name":"OwnableUnauthorizedAccount","inputs":[{"name":"account","type":"address","internalType":"address"}]}],"bytecode":{"object":"0x608060405234801561000f575f5ffd5b50604051612d8d380380612d8d83398181016040528101906100319190610266565b806040518060400160405280600781526020017f4e465420506574000000000000000000000000000000000000000000000000008152506040518060400160405280600281526020017f4e50000000000000000000000000000000000000000000000000000000000000815250815f90816100ac91906104ce565b5080600190816100bc91906104ce565b5050505f73ffffffffffffffffffffffffffffffffffffffff168173ffffffffffffffffffffffffffffffffffffffff160361012f575f6040517f1e4fbdf700000000000000000000000000000000000000000000000000000000815260040161012691906105ac565b60405180910390fd5b61013e8161014560201b60201c565b50506105c5565b5f60075f9054906101000a900473ffffffffffffffffffffffffffffffffffffffff1690508160075f6101000a81548173ffffffffffffffffffffffffffffffffffffffff021916908373ffffffffffffffffffffffffffffffffffffffff1602179055508173ffffffffffffffffffffffffffffffffffffffff168173ffffffffffffffffffffffffffffffffffffffff167f8be0079c531659141344cd1fd0a4f28419497f9722a3daafe3b4186f6b6457e060405160405180910390a35050565b5f5ffd5b5f73ffffffffffffffffffffffffffffffffffffffff82169050919050565b5f6102358261020c565b9050919050565b6102458161022b565b811461024f575f5ffd5b50565b5f815190506102608161023c565b92915050565b5f6020828403121561027b5761027a610208565b5b5f61028884828501610252565b91505092915050565b5f81519050919050565b7f4e487b71000000000000000000000000000000000000000000000000000000005f52604160045260245ffd5b7f4e487b71000000000000000000000000000000000000000000000000000000005f52602260045260245ffd5b5f600282049050600182168061030c57607f821691505b60208210810361031f5761031e6102c8565b5b50919050565b5f819050815f5260205f209050919050565b5f6020601f8301049050919050565b5f82821b905092915050565b5f600883026103817fffffffffffffffffffffffffffffffffffffffffffffffffffffffffffffffff82610346565b61038b8683610346565b95508019841693508086168417925050509392505050565b5f819050919050565b5f819050919050565b5f6103cf6103ca6103c5846103a3565b6103ac565b6103a3565b9050919050565b5f819050919050565b6103e8836103b5565b6103fc6103f4826103d6565b848454610352565b825550505050565b5f5f905090565b610413610404565b61041e8184846103df565b505050565b5b81811015610441576104365f8261040b565b600181019050610424565b5050565b601f8211156104865761045781610325565b61046084610337565b8101602085101561046f578190505b61048361047b85610337565b830182610423565b50505b505050565b5f82821c905092915050565b5f6104a65f198460080261048b565b1980831691505092915050565b5f6104be8383610497565b9150826002028217905092915050565b6104d782610291565b67ffffffffffffffff8111156104f0576104ef61029b565b5b6104fa82546102f5565b610505828285610445565b5f60209050601f831160018114610536575f8415610524578287015190505b61052e85826104b3565b865550610595565b601f19841661054486610325565b5f5b8281101561056b57848901518255600182019150602085019450602081019050610546565b868310156105885784890151610584601f891682610497565b8355505b6001600288020188555050505b505050505050565b6105a68161022b565b82525050565b5f6020820190506105bf5f83018461059d565b92915050565b6127bb806105d25f395ff3fe608060405234801561000f575f5ffd5b5060043610610114575f3560e01c8063715018a6116100a0578063b88d4fde1161006f578063b88d4fde146102dc578063c87b56dd146102f8578063d204c45e14610328578063e985e9c514610358578063f2fde38b1461038857610114565b8063715018a61461027a5780638da5cb5b1461028457806395d89b41146102a2578063a22cb465146102c057610114565b806323b872dd116100e757806323b872dd146101b25780632e6fefd6146101ce57806342842e0e146101fe5780636352211e1461021a57806370a082311461024a57610114565b806301ffc9a71461011857806306fdde0314610148578063081812fc14610166578063095ea7b314610196575b5f5ffd5b610132600480360381019061012d9190611bb4565b6103a4565b60405161013f9190611bf9565b60405180910390f35b6101506103b5565b60405161015d9190611c82565b60405180910390f35b610180600480360381019061017b9190611cd5565b610444565b60405161018d9190611d3f565b60405180910390f35b6101b060048036038101906101ab9190611d82565b61045f565b005b6101cc60048036038101906101c79190611dc0565b610475565b005b6101e860048036038101906101e39190611e10565b610574565b6040516101f59190611ef2565b60405180910390f35b61021860048036038101906102139190611dc0565b610607565b005b610234600480360381019061022f9190611cd5565b610626565b6040516102419190611d3f565b60405180910390f35b610264600480360381019061025f9190611e10565b610637565b6040516102719190611f21565b60405180910390f35b6102826106ed565b005b61028c610700565b6040516102999190611d3f565b60405180910390f35b6102aa610728565b6040516102b79190611c82565b60405180910390f35b6102da60048036038101906102d59190611f64565b6107b8565b005b6102f660048036038101906102f191906120ce565b6107ce565b005b610312600480360381019061030d9190611cd5565b6107f3565b60405161031f9190611c82565b60405180910390f35b610342600480360381019061033d91906121ec565b610805565b60405161034f9190611f21565b60405180910390f35b610372600480360381019061036d9190612246565b6108a6565b60405161037f9190611bf9565b60405180910390f35b6103a2600480360381019061039d9190611e10565b610934565b005b5f6103ae826109b8565b9050919050565b60605f80546103c3906122b1565b80601f01602080910402602001604051908101604052809291908181526020018280546103ef906122b1565b801561043a5780601f106104115761010080835404028352916020019161043a565b820191905f5260205f20905b81548152906001019060200180831161041d57829003601f168201915b5050505050905090565b5f61044e82610a18565b5061045882610a9e565b9050919050565b610471828261046c610ad7565b610ade565b5050565b5f73ffffffffffffffffffffffffffffffffffffffff168273ffffffffffffffffffffffffffffffffffffffff16036104e5575f6040517f64a0ae920000000000000000000000000000000000000000000000000000000081526004016104dc9190611d3f565b60405180910390fd5b5f6104f883836104f3610ad7565b610af0565b90508373ffffffffffffffffffffffffffffffffffffffff168173ffffffffffffffffffffffffffffffffffffffff161461056e578382826040517f64283d7b000000000000000000000000000000000000000000000000000000008152600401610565939291906122e1565b60405180910390fd5b50505050565b606060095f8373ffffffffffffffffffffffffffffffffffffffff1673ffffffffffffffffffffffffffffffffffffffff1681526020019081526020015f208054806020026020016040519081016040528092919081815260200182805480156105fb57602002820191905f5260205f20905b8154815260200190600101908083116105e7575b50505050509050919050565b61062183838360405180602001604052805f8152506107ce565b505050565b5f61063082610a18565b9050919050565b5f5f73ffffffffffffffffffffffffffffffffffffffff168273ffffffffffffffffffffffffffffffffffffffff16036106a8575f6040517f89c62b6400000000000000000000000000000000000000000000000000000000815260040161069f9190611d3f565b60405180910390fd5b60035f8373ffffffffffffffffffffffffffffffffffffffff1673ffffffffffffffffffffffffffffffffffffffff1681526020019081526020015f20549050919050565b6106f5610cfb565b6106fe5f610d82565b565b5f60075f9054906101000a900473ffffffffffffffffffffffffffffffffffffffff16905090565b606060018054610737906122b1565b80601f0160208091040260200160405190810160405280929190818152602001828054610763906122b1565b80156107ae5780601f10610785576101008083540402835291602001916107ae565b820191905f5260205f20905b81548152906001019060200180831161079157829003601f168201915b5050505050905090565b6107ca6107c3610ad7565b8383610e45565b5050565b6107d9848484610475565b6107ed6107e4610ad7565b85858585610fae565b50505050565b60606107fe8261115a565b9050919050565b5f61080e610cfb565b5f60085f81548092919061082190612343565b91905055905060095f8573ffffffffffffffffffffffffffffffffffffffff1673ffffffffffffffffffffffffffffffffffffffff1681526020019081526020015f2081908060018154018082558091505060019003905f5260205f20015f90919091909150556108928482611265565b61089c8184611282565b8091505092915050565b5f60055f8473ffffffffffffffffffffffffffffffffffffffff1673ffffffffffffffffffffffffffffffffffffffff1681526020019081526020015f205f8373ffffffffffffffffffffffffffffffffffffffff1673ffffffffffffffffffffffffffffffffffffffff1681526020019081526020015f205f9054906101000a900460ff16905092915050565b61093c610cfb565b5f73ffffffffffffffffffffffffffffffffffffffff168173ffffffffffffffffffffffffffffffffffffffff16036109ac575f6040517f1e4fbdf70000000000000000000000000000000000000000000000000000000081526004016109a39190611d3f565b60405180910390fd5b6109b581610d82565b50565b5f634906490660e01b7bffffffffffffffffffffffffffffffffffffffffffffffffffffffff1916827bffffffffffffffffffffffffffffffffffffffffffffffffffffffff19161480610a115750610a10826112dc565b5b9050919050565b5f5f610a23836113bd565b90505f73ffffffffffffffffffffffffffffffffffffffff168173ffffffffffffffffffffffffffffffffffffffff1603610a9557826040517f7e273289000000000000000000000000000000000000000000000000000000008152600401610a8c9190611f21565b60405180910390fd5b80915050919050565b5f60045f8381526020019081526020015f205f9054906101000a900473ffffffffffffffffffffffffffffffffffffffff169050919050565b5f33905090565b610aeb83838360016113f6565b505050565b5f5f610afb846113bd565b90505f73ffffffffffffffffffffffffffffffffffffffff168373ffffffffffffffffffffffffffffffffffffffff1614610b3c57610b3b8184866115b5565b5b5f73ffffffffffffffffffffffffffffffffffffffff168173ffffffffffffffffffffffffffffffffffffffff1614610bc757610b7b5f855f5f6113f6565b600160035f8373ffffffffffffffffffffffffffffffffffffffff1673ffffffffffffffffffffffffffffffffffffffff1681526020019081526020015f205f82825403925050819055505b5f73ffffffffffffffffffffffffffffffffffffffff168573ffffffffffffffffffffffffffffffffffffffff1614610c4657600160035f8773ffffffffffffffffffffffffffffffffffffffff1673ffffffffffffffffffffffffffffffffffffffff1681526020019081526020015f205f82825401925050819055505b8460025f8681526020019081526020015f205f6101000a81548173ffffffffffffffffffffffffffffffffffffffff021916908373ffffffffffffffffffffffffffffffffffffffff160217905550838573ffffffffffffffffffffffffffffffffffffffff168273ffffffffffffffffffffffffffffffffffffffff167fddf252ad1be2c89b69c2b068fc378daa952ba7f163c4a11628f55a4df523b3ef60405160405180910390a4809150509392505050565b610d03610ad7565b73ffffffffffffffffffffffffffffffffffffffff16610d21610700565b73ffffffffffffffffffffffffffffffffffffffff1614610d8057610d44610ad7565b6040517f118cdaa7000000000000000000000000000000000000000000000000000000008152600401610d779190611d3f565b60405180910390fd5b565b5f60075f9054906101000a900473ffffffffffffffffffffffffffffffffffffffff1690508160075f6101000a81548173ffffffffffffffffffffffffffffffffffffffff021916908373ffffffffffffffffffffffffffffffffffffffff1602179055508173ffffffffffffffffffffffffffffffffffffffff168173ffffffffffffffffffffffffffffffffffffffff167f8be0079c531659141344cd1fd0a4f28419497f9722a3daafe3b4186f6b6457e060405160405180910390a35050565b5f73ffffffffffffffffffffffffffffffffffffffff168273ffffffffffffffffffffffffffffffffffffffff1603610eb557816040517f5b08ba18000000000000000000000000000000000000000000000000000000008152600401610eac9190611d3f565b60405180910390fd5b8060055f8573ffffffffffffffffffffffffffffffffffffffff1673ffffffffffffffffffffffffffffffffffffffff1681526020019081526020015f205f8473ffffffffffffffffffffffffffffffffffffffff1673ffffffffffffffffffffffffffffffffffffffff1681526020019081526020015f205f6101000a81548160ff0219169083151502179055508173ffffffffffffffffffffffffffffffffffffffff168373ffffffffffffffffffffffffffffffffffffffff167f17307eab39ab6107e8899845ad3d59bd9653f200f220920489ca2b5937696c3183604051610fa19190611bf9565b60405180910390a3505050565b5f8373ffffffffffffffffffffffffffffffffffffffff163b1115611153578273ffffffffffffffffffffffffffffffffffffffff1663150b7a02868685856040518563ffffffff1660e01b815260040161100c94939291906123dc565b6020604051808303815f875af192505050801561104757506040513d601f19601f82011682018060405250810190611044919061243a565b60015b6110c8573d805f8114611075576040519150601f19603f3d011682016040523d82523d5f602084013e61107a565b606091505b505f8151036110c057836040517f64a0ae920000000000000000000000000000000000000000000000000000000081526004016110b79190611d3f565b60405180910390fd5b805181602001fd5b63150b7a0260e01b7bffffffffffffffffffffffffffffffffffffffffffffffffffffffff1916817bffffffffffffffffffffffffffffffffffffffffffffffffffffffff19161461115157836040517f64a0ae920000000000000000000000000000000000000000000000000000000081526004016111489190611d3f565b60405180910390fd5b505b5050505050565b606061116582610a18565b505f60065f8481526020019081526020015f208054611183906122b1565b80601f01602080910402602001604051908101604052809291908181526020018280546111af906122b1565b80156111fa5780601f106111d1576101008083540402835291602001916111fa565b820191905f5260205f20905b8154815290600101906020018083116111dd57829003601f168201915b505050505090505f61120a611678565b90505f81510361121e578192505050611260565b5f8251111561125257808260405160200161123a92919061249f565b60405160208183030381529060405292505050611260565b61125b8461168e565b925050505b919050565b61127e828260405180602001604052805f8152506116f4565b5050565b8060065f8481526020019081526020015f2090816112a09190612662565b507ff8e1a15aba9398e019f0b49df1a4fde98ee17ae345cb5f6b5e2c27f5033e8ce7826040516112d09190611f21565b60405180910390a15050565b5f7f80ac58cd000000000000000000000000000000000000000000000000000000007bffffffffffffffffffffffffffffffffffffffffffffffffffffffff1916827bffffffffffffffffffffffffffffffffffffffffffffffffffffffff191614806113a657507f5b5e139f000000000000000000000000000000000000000000000000000000007bffffffffffffffffffffffffffffffffffffffffffffffffffffffff1916827bffffffffffffffffffffffffffffffffffffffffffffffffffffffff1916145b806113b657506113b582611717565b5b9050919050565b5f60025f8381526020019081526020015f205f9054906101000a900473ffffffffffffffffffffffffffffffffffffffff169050919050565b808061142e57505f73ffffffffffffffffffffffffffffffffffffffff168273ffffffffffffffffffffffffffffffffffffffff1614155b15611560575f61143d84610a18565b90505f73ffffffffffffffffffffffffffffffffffffffff168373ffffffffffffffffffffffffffffffffffffffff16141580156114a757508273ffffffffffffffffffffffffffffffffffffffff168173ffffffffffffffffffffffffffffffffffffffff1614155b80156114ba57506114b881846108a6565b155b156114fc57826040517fa9fbf51f0000000000000000000000000000000000000000000000000000000081526004016114f39190611d3f565b60405180910390fd5b811561155e57838573ffffffffffffffffffffffffffffffffffffffff168273ffffffffffffffffffffffffffffffffffffffff167f8c5be1e5ebec7d5bd14f71427d1e84f3dd0314c0f7b2291e5b200ac8c7c3b92560405160405180910390a45b505b8360045f8581526020019081526020015f205f6101000a81548173ffffffffffffffffffffffffffffffffffffffff021916908373ffffffffffffffffffffffffffffffffffffffff16021790555050505050565b6115c0838383611780565b611673575f73ffffffffffffffffffffffffffffffffffffffff168373ffffffffffffffffffffffffffffffffffffffff160361163457806040517f7e27328900000000000000000000000000000000000000000000000000000000815260040161162b9190611f21565b60405180910390fd5b81816040517f177e802f00000000000000000000000000000000000000000000000000000000815260040161166a929190612731565b60405180910390fd5b505050565b606060405180602001604052805f815250905090565b606061169982610a18565b505f6116a3611678565b90505f8151116116c15760405180602001604052805f8152506116ec565b806116cb84611840565b6040516020016116dc92919061249f565b6040516020818303038152906040525b915050919050565b6116fe838361190a565b611712611709610ad7565b5f858585610fae565b505050565b5f7f01ffc9a7000000000000000000000000000000000000000000000000000000007bffffffffffffffffffffffffffffffffffffffffffffffffffffffff1916827bffffffffffffffffffffffffffffffffffffffffffffffffffffffff1916149050919050565b5f5f73ffffffffffffffffffffffffffffffffffffffff168373ffffffffffffffffffffffffffffffffffffffff161415801561183757508273ffffffffffffffffffffffffffffffffffffffff168473ffffffffffffffffffffffffffffffffffffffff1614806117f857506117f784846108a6565b5b8061183657508273ffffffffffffffffffffffffffffffffffffffff1661181e83610a9e565b73ffffffffffffffffffffffffffffffffffffffff16145b5b90509392505050565b60605f600161184e846119fd565b0190505f8167ffffffffffffffff81111561186c5761186b611faa565b5b6040519080825280601f01601f19166020018201604052801561189e5781602001600182028036833780820191505090505b5090505f82602001820190505b6001156118ff578080600190039150507f3031323334353637383961626364656600000000000000000000000000000000600a86061a8153600a85816118f4576118f3612758565b5b0494505f85036118ab575b819350505050919050565b5f73ffffffffffffffffffffffffffffffffffffffff168273ffffffffffffffffffffffffffffffffffffffff160361197a575f6040517f64a0ae920000000000000000000000000000000000000000000000000000000081526004016119719190611d3f565b60405180910390fd5b5f61198683835f610af0565b90505f73ffffffffffffffffffffffffffffffffffffffff168173ffffffffffffffffffffffffffffffffffffffff16146119f8575f6040517f73c6ac6e0000000000000000000000000000000000000000000000000000000081526004016119ef9190611d3f565b60405180910390fd5b505050565b5f5f5f90507a184f03e93ff9f4daa797ed6e38ed64bf6a1f0100000000000000008310611a59577a184f03e93ff9f4daa797ed6e38ed64bf6a1f0100000000000000008381611a4f57611a4e612758565b5b0492506040810190505b6d04ee2d6d415b85acef81000000008310611a96576d04ee2d6d415b85acef81000000008381611a8c57611a8b612758565b5b0492506020810190505b662386f26fc100008310611ac557662386f26fc100008381611abb57611aba612758565b5b0492506010810190505b6305f5e1008310611aee576305f5e1008381611ae457611ae3612758565b5b0492506008810190505b6127108310611b13576127108381611b0957611b08612758565b5b0492506004810190505b60648310611b365760648381611b2c57611b2b612758565b5b0492506002810190505b600a8310611b45576001810190505b80915050919050565b5f604051905090565b5f5ffd5b5f5ffd5b5f7fffffffff0000000000000000000000000000000000000000000000000000000082169050919050565b611b9381611b5f565b8114611b9d575f5ffd5b50565b5f81359050611bae81611b8a565b92915050565b5f60208284031215611bc957611bc8611b57565b5b5f611bd684828501611ba0565b91505092915050565b5f8115159050919050565b611bf381611bdf565b82525050565b5f602082019050611c0c5f830184611bea565b92915050565b5f81519050919050565b5f82825260208201905092915050565b8281835e5f83830152505050565b5f601f19601f8301169050919050565b5f611c5482611c12565b611c5e8185611c1c565b9350611c6e818560208601611c2c565b611c7781611c3a565b840191505092915050565b5f6020820190508181035f830152611c9a8184611c4a565b905092915050565b5f819050919050565b611cb481611ca2565b8114611cbe575f5ffd5b50565b5f81359050611ccf81611cab565b92915050565b5f60208284031215611cea57611ce9611b57565b5b5f611cf784828501611cc1565b91505092915050565b5f73ffffffffffffffffffffffffffffffffffffffff82169050919050565b5f611d2982611d00565b9050919050565b611d3981611d1f565b82525050565b5f602082019050611d525f830184611d30565b92915050565b611d6181611d1f565b8114611d6b575f5ffd5b50565b5f81359050611d7c81611d58565b92915050565b5f5f60408385031215611d9857611d97611b57565b5b5f611da585828601611d6e565b9250506020611db685828601611cc1565b9150509250929050565b5f5f5f60608486031215611dd757611dd6611b57565b5b5f611de486828701611d6e565b9350506020611df586828701611d6e565b9250506040611e0686828701611cc1565b9150509250925092565b5f60208284031215611e2557611e24611b57565b5b5f611e3284828501611d6e565b91505092915050565b5f81519050919050565b5f82825260208201905092915050565b5f819050602082019050919050565b611e6d81611ca2565b82525050565b5f611e7e8383611e64565b60208301905092915050565b5f602082019050919050565b5f611ea082611e3b565b611eaa8185611e45565b9350611eb583611e55565b805f5b83811015611ee5578151611ecc8882611e73565b9750611ed783611e8a565b925050600181019050611eb8565b5085935050505092915050565b5f6020820190508181035f830152611f0a8184611e96565b905092915050565b611f1b81611ca2565b82525050565b5f602082019050611f345f830184611f12565b92915050565b611f4381611bdf565b8114611f4d575f5ffd5b50565b5f81359050611f5e81611f3a565b92915050565b5f5f60408385031215611f7a57611f79611b57565b5b5f611f8785828601611d6e565b9250506020611f9885828601611f50565b9150509250929050565b5f5ffd5b5f5ffd5b7f4e487b71000000000000000000000000000000000000000000000000000000005f52604160045260245ffd5b611fe082611c3a565b810181811067ffffffffffffffff82111715611fff57611ffe611faa565b5b80604052505050565b5f612011611b4e565b905061201d8282611fd7565b919050565b5f67ffffffffffffffff82111561203c5761203b611faa565b5b61204582611c3a565b9050602081019050919050565b828183375f83830152505050565b5f61207261206d84612022565b612008565b90508281526020810184848401111561208e5761208d611fa6565b5b612099848285612052565b509392505050565b5f82601f8301126120b5576120b4611fa2565b5b81356120c5848260208601612060565b91505092915050565b5f5f5f5f608085870312156120e6576120e5611b57565b5b5f6120f387828801611d6e565b945050602061210487828801611d6e565b935050604061211587828801611cc1565b925050606085013567ffffffffffffffff81111561213657612135611b5b565b5b612142878288016120a1565b91505092959194509250565b5f67ffffffffffffffff82111561216857612167611faa565b5b61217182611c3a565b9050602081019050919050565b5f61219061218b8461214e565b612008565b9050828152602081018484840111156121ac576121ab611fa6565b5b6121b7848285612052565b509392505050565b5f82601f8301126121d3576121d2611fa2565b5b81356121e384826020860161217e565b91505092915050565b5f5f6040838503121561220257612201611b57565b5b5f61220f85828601611d6e565b925050602083013567ffffffffffffffff8111156122305761222f611b5b565b5b61223c858286016121bf565b9150509250929050565b5f5f6040838503121561225c5761225b611b57565b5b5f61226985828601611d6e565b925050602061227a85828601611d6e565b9150509250929050565b7f4e487b71000000000000000000000000000000000000000000000000000000005f52602260045260245ffd5b5f60028204905060018216806122c857607f821691505b6020821081036122db576122da612284565b5b50919050565b5f6060820190506122f45f830186611d30565b6123016020830185611f12565b61230e6040830184611d30565b949350505050565b7f4e487b71000000000000000000000000000000000000000000000000000000005f52601160045260245ffd5b5f61234d82611ca2565b91507fffffffffffffffffffffffffffffffffffffffffffffffffffffffffffffffff820361237f5761237e612316565b5b600182019050919050565b5f81519050919050565b5f82825260208201905092915050565b5f6123ae8261238a565b6123b88185612394565b93506123c8818560208601611c2c565b6123d181611c3a565b840191505092915050565b5f6080820190506123ef5f830187611d30565b6123fc6020830186611d30565b6124096040830185611f12565b818103606083015261241b81846123a4565b905095945050505050565b5f8151905061243481611b8a565b92915050565b5f6020828403121561244f5761244e611b57565b5b5f61245c84828501612426565b91505092915050565b5f81905092915050565b5f61247982611c12565b6124838185612465565b9350612493818560208601611c2c565b80840191505092915050565b5f6124aa828561246f565b91506124b6828461246f565b91508190509392505050565b5f819050815f5260205f209050919050565b5f6020601f8301049050919050565b5f82821b905092915050565b5f6008830261251e7fffffffffffffffffffffffffffffffffffffffffffffffffffffffffffffffff826124e3565b61252886836124e3565b95508019841693508086168417925050509392505050565b5f819050919050565b5f61256361255e61255984611ca2565b612540565b611ca2565b9050919050565b5f819050919050565b61257c83612549565b6125906125888261256a565b8484546124ef565b825550505050565b5f5f905090565b6125a7612598565b6125b2818484612573565b505050565b5b818110156125d5576125ca5f8261259f565b6001810190506125b8565b5050565b601f82111561261a576125eb816124c2565b6125f4846124d4565b81016020851015612603578190505b61261761260f856124d4565b8301826125b7565b50505b505050565b5f82821c905092915050565b5f61263a5f198460080261261f565b1980831691505092915050565b5f612652838361262b565b9150826002028217905092915050565b61266b82611c12565b67ffffffffffffffff81111561268457612683611faa565b5b61268e82546122b1565b6126998282856125d9565b5f60209050601f8311600181146126ca575f84156126b8578287015190505b6126c28582612647565b865550612729565b601f1984166126d8866124c2565b5f5b828110156126ff578489015182556001820191506020850194506020810190506126da565b8683101561271c5784890151612718601f89168261262b565b8355505b6001600288020188555050505b505050505050565b5f6040820190506127445f830185611d30565b6127516020830184611f12565b9392505050565b7f4e487b71000000000000000000000000000000000000000000000000000000005f52601260045260245ffdfea26469706673582212203cf172dcc0fbc931715d64024e43c92246ddd2101380255115cb428ebee3c6b464736f6c634300081c0033","linkReferences":{}},"methodIdentifiers":{"approve(address,uint256)":"095ea7b3","balanceOf(address)":"70a08231","getApproved(uint256)":"081812fc","getMyOwnerTokens(address)":"2e6fefd6","isApprovedForAll(address,address)":"e985e9c5","name()":"06fdde03","owner()":"8da5cb5b","ownerOf(uint256)":"6352211e","renounceOwnership()":"715018a6","safeMint(address,string)":"d204c45e","safeTransferFrom(address,address,uint256)":"42842e0e","safeTransferFrom(address,address,uint256,bytes)":"b88d4fde","setApprovalForAll(address,bool)":"a22cb465","supportsInterface(bytes4)":"01ffc9a7","symbol()":"95d89b41","tokenURI(uint256)":"c87b56dd","transferFrom(address,address,uint256)":"23b872dd","transferOwnership(address)":"f2fde38b"},"id":35}